:020000040800F2
:100000000050002095170008C1040008C304000830
:10001000C5040008C7040008C90400080000000067
:10002000000000000000000000000000CB040008F9
:10003000CD04000800000000CF040008D10400082F
:10004000DD170008DD170008DD170008DD170008C0
:10005000DD170008DD170008D9040008E3040008D4
:10006000DD170008DD170008DD170008DD170008A0
:10007000DD170008DD170008DD170008DD17000890
:10008000DD170008DD170008DD170008DD17000880
:10009000DD170008DD170008DD170008DD17000870
:1000A000DD170008DD170008DD170008DD17000860
:1000B000DD170008DD170008DD170008DD17000850
:1000C000DD170008DD170008DD170008DD17000840
:1000D000DD170008ED040008DD170008DD17000833
:1000E000DD170008DD170008DD170008000000001C
:1000F0000000000000000000000000000000000000
:0C01000000000000000000005FF808F1A3
:10010C0010B5054C237833B9044B13B10448AFF345
:10011C0000800123237010BD440400200000000067
:10012C00AC19000808B5034B1BB103490348AFF3E6
:10013C00008008BD0000000048040020AC19000835
:10014C002DE9F04188B0002404940594069407949A
:10015C00374B9A6942F020029A619A6902F02002A8
:10016C000192019A9A6942F004029A619A6902F02A
:10017C0004020292029A9A6942F008029A619B69FF
:10018C0003F008030393039B2A4F22464FF4865136
:10019C00384600F05EFC284D01224FF4C851284629
:1001AC0000F057FC01222021384600F052FC0126B9
:1001BC000496224B05934FF00208CDF8188004A941
:1001CC00284600F02DFBCDF810801D4B05930696AC
:1001DC0004A9284600F024FB4FF48753049305969A
:1001EC0006944FF00308CDF81C8004A9384600F0A3
:1001FC0017FB4FF4C853049305960694CDF81C8056
:10020C0004A9284600F00CFB22460C21062000F025
:10021C003FFA062000F074FA22460B21072000F06A
:10022C0037FA072000F06CFA08B0BDE8F08100BF87
:10023C0000100240000C0140000801400000211099
:10024C000000111010B5094C01224FF480512046CA
:10025C0000F0FFFB4FF4FA7000F0F4F900224FF4B9
:10026C008051204600F0F5FB10BD00BF000C014092
:10027C0008B5012802D0022812D008BD142000F0C5
:10028C00E1F901210C4800F0DDFB0028F5D14FF419
:10029C00C85100F1804000F5843000F0E0FBECE741
:1002AC00142000F0CFF90221034800F0CBFB012809
:1002BC00E3D1FFF7C7FFE0E70008014008B51E4B8C
:1002CC001B78FF2B11D05A1CD2B21B490A701B4948
:1002DC001B480078C854531ECB5C0A2B15D0012246
:1002EC001749184801F033FA08BD0021124B197058
:1002FC004FF48072114801F091FA4FF6FF730A2205
:10030C001149104800F0EBFFE9E7931ECB5C0D2B75
:10031C00E5D14FF6FF730B4800F0E1FF094801F0FF
:10032C00F5F92128FAD00021034B19704FF4807293
:10033C00024801F073FAD2E7600500206004002047
:10034C006105002064050020C419000808B5FFF7FA
:10035C0079FF4FF6FF730A220249034800F0BFFFF2
:10036C0008BD00BFD01900086405002072B6FEE776
:10037C0000B591B02822002106A801F04FFA002305
:10038C0001930293039304930593012206924FF475
:10039C00803307930A9202220D920E934FF4E013CE
:1003AC000F9306A800F088FB80B90F23019302215C
:1003BC000291002303934FF480620492059301A8E9
:1003CC0000F0B8FD20B911B05DF804FBFFF7CEFFCB
:1003DC00FFF7CCFF08B500F011F9FFF7C9FFFFF7E5
:1003EC00AFFE00F087F81D4C01221D49204601F09C
:1003FC00AEF901221B49204600F0DDFF4FF47A7064
:10040C0000F020F94FF47A7000F01CF9164D01221F
:10041C001146284600F01DFB104C4FF6FF730C22C2
:10042C001249204600F05BFF642000F00BF900221B
:10043C000121284600F00DFB01220A49204600F05C
:10044C00BAFF4FF47A7000F0FDF84FF47A7000F0B8
:10045C00F9F84FF47A7000F0F5F8CFE76405002056
:10046C00610500206205002000080140000000200A
:10047C0082B00E4B9A6942F001029A619A6902F0BD
:10048C0001020092009ADA6942F08052DA61DB696B
:10049C0003F080530193019B054A536823F0E063FA
:1004AC0043F08063536002B0704700BF00100240FD
:1004BC0000000140FEE7FEE7FEE7FEE7FEE77047BF
:1004CC007047704708B500F0ABF808BD08B50120BF
:1004DC0000F0CEFA08BD08B5022000F0C9FA08BD3C
:1004EC0008B5024801F010F808BD00BF64050020F3
:1004FC007047000008B50A480A4B03604FF4E1331B
:10050C00436000238360C36003610C2242618361FA
:10051C00C36100F0B5FE00B908BDFFF727FFFBE78C
:10052C00640500200038014070B586B000230293AA
:10053C0003930493059302681B4B9A4201D006B0B7
:10054C0070BD03F558439A6942F480429A619A69E6
:10055C0002F480420092009A9A6942F004029A6175
:10056C009B6903F004030193019B4FF40073029306
:10057C0002250395032305930C4E02A9304600F087
:10058C004FF94FF48063029300240394049402A95E
:10059C00304600F045F922462946252000F078F82F
:1005AC00252000F0ADF8CAE70038014000080140F2
:1005BC0010B504460E4B18784FF47A73B3FBF0F376
:1005CC000C4A1068B0FBF3F000F0A8F868B90F2CD7
:1005DC0001D901200AE0002221464FF0FF3000F043
:1005EC0057F8054B1C60002000E0012010BD00BF37
:1005FC00100000200C0000201400002008B5074A51
:10060C00136843F010031360032000F02FF8002050
:10061C00FFF7CEFFFFF72CFF002008BD00200240A3
:10062C00034A1168034B1B780B441360704700BFDF
:10063C00A805002010000020014B1868704700BF6F
:10064C00A805002038B50446FFF7F6FF0546B4F1BF
:10065C00FF3F02D0044B1B781C44FFF7EDFF401BFF
:10066C00A042FAD338BD00BF10000020074AD3685F
:10067C0023F4E0631B041B0C000200F4E060034352
:10068C0043F0BF6343F40033D360704700ED00E0E8
:10069C0000B5194BDB68C3F30223C3F1070CBCF1A3
:1006AC00040F28BF4FF0040C03F1040EBEF1060F2B
:1006BC0018D9033B4FF0FF3E0EFA0CFC21EA0C015B
:1006CC0099400EFA03F322EA0303194300280BDBCB
:1006DC000901C9B200F1604000F5614080F80013D7
:1006EC005DF804FB0023E5E700F00F000901C9B237
:1006FC00024B1954F4E700BF00ED00E014ED00E0EC
:10070C00002807DB00F01F02400901239340024A36
:10071C0042F82030704700BF00E100E00138B0F132
:10072C00807F0BD24FF0E0235861054AF02182F80C
:10073C0023100020986107221A617047012070472E
:10074C0000ED00E090F82130022B06D004238363E7
:10075C00002380F82030012070470268136823F0D2
:10076C000E0313600268136823F001031360036C1B
:10077C00C16B012202FA03F34B6080F821200023A5
:10078C0080F820301846704708B590F82130022BBD
:10079C0003D004238363012008BD0268136823F08F
:1007AC000E0313600268136823F0010313600368DF
:1007BC00194A934214D0143293421FD014329342EC
:1007CC001ED0143293421ED0143293421ED01432D7
:1007DC00934202D04FF0807203E04FF4801200E09D
:1007EC0001220E4B5A60012380F82130002380F83F
:1007FC002030436B6BB198470020CDE71022F0E717
:10080C004FF48072EDE74FF48052EAE74FF48032F8
:10081C00E7E70020C0E700BF0800024000000240EC
:10082C0070B582B00024A446A6E0804DAA4210D038
:10083C0007D97F4DAA420CD005F58035AA4208D0C5
:10084C0013E0A5F58015AA4203D005F57025AA4240
:10085C0007D18A68002A58D0012A51D04361082454
:10086C0003E0A5F58015AA42F3D0BEF1FF0F4ED8D8
:10087C000646BEF1FF0F4CD84FEA8C0233680F25A9
:10088C00954023EA050304FA02F2134333604B68E4
:10089C0013F0805F6ED0674B9A6942F001029A6147
:1008AC009B6903F001030193019B4FEA9C02951C89
:1008BC00614B53F825600CF003039D000F23AB40F4
:1008CC0026EA03065D4B984229D003F580639842D3
:1008DC0000F08E8003F58063984200F08B8003F566
:1008EC008063984219D004231AE0CC68BDE7CC6829
:1008FC000434BAE7CC680834B7E7CC680C34B4E7F6
:10090C0003610824B1E70024AFE70424ADE7061D1A
:10091C00AFE7ACF108029200B0E7032300E000233C
:10092C00AB4033430232444D45F822304B6813F44C
:10093C00803F61D0424A136843EA0E0313604B6850
:10094C0013F4003F5ED03E4A536843EA0E035360F3
:10095C004B6813F4801F5BD0394A936843EA0E034B
:10096C0093604B6813F4001F58D0354AD36843EAA0
:10097C000E03D3600CF1010C0A6832FA0CF353D05D
:10098C00012303FA0CF302EA030E33EA0202F1D15B
:10099C004A68122A3FF649AF122A3FF666AF01A504
:1009AC0055F822F05F080008F70800080109000854
:1009BC001309000877080008770800087708000872
:1009CC0077080008770800087708000877080008FF
:1009DC0077080008770800087708000877080008EF
:1009EC007708000877080008FB08000807090008CA
:1009FC00012395E7022393E7114A136823EA0E03B8
:100A0C0013609CE70E4A536823EA0E0353609FE77A
:100A1C000B4A936823EA0E039360A2E7084AD36853
:100A2C0023EA0E03D360A5E702B070BD00002210CC
:100A3C00000031100010024000000140000801408D
:100A4C00000401408368194201D001207047002046
:100A5C0070470AB101617047090401617047C368AE
:100A6C0001EA030221EA030141EA024101617047F4
:100A7C0008B5054B5B69034200D108BD024B5861B8
:100A8C00FFF7F6FBF9E700BF0004014082B0084B0A
:100A9C001B68084AA2FB03235B0A00FB03F30193C8
:100AAC0000BF019B5A1E0192002BF9D102B0704776
:100ABC000C000020D34D6210002800F0F18170B5BD
:100ACC0082B00446036813F0010F2CD0994B5B687D
:100ADC0003F00C03042B1DD0964B5B6803F00C0346
:100AEC00082B12D06368B3F5803F41D0002B55D151
:100AFC0003F1804303F504331A6822F480321A6040
:100B0C001A6822F480221A6037E08A4B5B6813F46F
:100B1C00803FE7D0874B1B6813F4003F03D063681A
:100B2C00002B00F0BF81236813F0020F75D0814BAE
:100B3C005B6813F00C0F5FD07E4B5B6803F00C030B
:100B4C00082B54D02369002B00F08A807A4B0122A9
:100B5C001A60FFF771FD0546764B1B6813F0020F08
:100B6C0075D1FFF769FD401B0228F5D903209EE1E2
:100B7C00704A136843F480331360636843B3FFF720
:100B8C005BFD05466B4B1B6813F4003FCBD1FFF7A5
:100B9C0053FD401B6428F5D9032088E1B3F5A02F41
:100BAC0009D0644B1A6822F480321A601A6822F455
:100BBC0080221A60E1E703F18043A3F53C331A6805
:100BCC0042F480221A601A6842F480321A60D4E728
:100BDC00FFF732FD0546574B1B6813F4003FA2D0BC
:100BEC00FFF72AFD401B6428F5D903205FE1514B28
:100BFC005B6813F4803FA5D14E4B1B6813F0020FBA
:100C0C0003D02369012B40F04F814A4A136823F02B
:100C1C00F803616943EAC1031360236813F0080FFA
:100C2C0033D0A369002B5CD0434B0122C3F8802442
:100C3C00FFF702FD05463F4B5B6A13F0020F21D113
:100C4C00FFF7FAFC401B0228F5D903202FE1394AA3
:100C5C00136823F0F803616943EAC1031360DCE70E
:100C6C00354B00221A60FFF7E7FC0546314B1B6839
:100C7C0013F0020FD1D0FFF7DFFC401B0228F5D98F
:100C8C00032014E10120FFF701FF236813F0040F88
:100C9C0000F09680274BDB6913F0805F34D1254B35
:100CAC00DA6942F08052DA61DB6903F08053019318
:100CBC00019B0125214B1B6813F4807F26D0E36830
:100CCC00012B3DD0002B53D103F1804303F50433AA
:100CDC001A6A22F001021A621A6A22F004021A62DB
:100CEC0033E0154B0022C3F88024FFF7A5FC054622
:100CFC00104B5B6A13F0020FC7D0FFF79DFC401B33
:100D0C000228F5D90320D2E00025D3E70B4A13685B
:100D1C0043F480731360FFF78FFC0646074B1B6888
:100D2C0013F4807FCBD1FFF787FC801B6428F5D9A7
:100D3C000320BCE000100240000042420070004062
:100D4C005F4A136A43F001031362E36833B3FFF79E
:100D5C0073FC06465A4B1B6A13F0020F2FD1FFF798
:100D6C006BFC801B41F288339842F3D903209EE040
:100D7C00052B09D0524B1A6A22F001021A621A6A28
:100D8C0022F004021A62E0E74D4B1A6A42F00402A8
:100D9C001A621A6A42F001021A62D6E7FFF74CFC9B
:100DAC000646474B1B6A13F0020F08D0FFF744FCB2
:100DBC00801B41F288339842F3D9032077E0E5B9E0
:100DCC00E369002B72D03E4A526802F00C02082AEA
:100DDC0056D0022B17D03B4B00221A66FFF72CFC87
:100DEC000446374B1B6813F0007F47D0FFF724FCF9
:100DFC00001B0228F5D9032059E0314AD36923F0AE
:100E0C008053D361DCE72F4B00221A66FFF714FCEA
:100E1C0005462B4B1B6813F0007F06D0FFF70CFC2C
:100E2C00401B0228F5D9032041E0236AB3F5803F2B
:100E3C001AD023494B6823F47413226A606A024364
:100E4C0013434B601F4B01221A66FFF7F5FB044658
:100E5C001B4B1B6813F0007F0ED1FFF7EDFB001B43
:100E6C000228F5D9032022E0154A536823F40033F5
:100E7C00A1680B435360DCE7002018E0002016E06B
:100E8C00012B16D00E4B5B6803F48031226A914221
:100E9C0011D103F47013626A93420ED1002006E064
:100EAC0001207047012002E0012000E0002002B088
:100EBC0070BD0120FBE70120F9E70120F7E700BF37
:100ECC00001002400000424286B0164B0FCB0DF1D1
:100EDC00180C0CE90F0040F20123ADF80430124B52
:100EEC005B6803F00C02082A02D0104806B0704769
:100EFC00C3F38342624412F8100C13F4803F0CD0FD
:100F0C00094B5B68C3F34043634413F8143C074A32
:100F1C0002FB00F0B0FBF3F0E8E7054B03FB00F03D
:100F2C00E4E700BFF41900080010024000127A0038
:100F3C0000093D00002800F0A08070B50D46044665
:100F4C00524B1B6803F007038B420BD24F4A1368BA
:100F5C0023F007030B431360136803F007038B4262
:100F6C0040F08D80236813F0020F17D013F0040F9C
:100F7C0004D0474A536843F4E0635360236813F08A
:100F8C00080F04D0424A536843F460535360404AFC
:100F9C00536823F0F003A1680B435360236813F0EC
:100FAC00010F31D06368012B20D0022B25D0384A99
:100FBC00126812F0020F64D035494A6822F003021D
:100FCC0013434B60FFF738FB0646314B5B6803F06D
:100FDC000C036268B3EB820F16D0FFF72DFB801B5E
:100FEC0041F288339842F0D9032045E0284A126830
:100FFC0012F4003FE0D101203EE0254A126812F0C5
:10100C00007FD9D1012037E0204B1B6803F0070388
:10101C00AB420AD91D4A136823F007032B43136014
:10102C00136803F00703AB422DD1236813F0040FB0
:10103C0006D0174A536823F4E063E1680B4353600E
:10104C00236813F0080F07D0114A536823F4605338
:10105C00216943EAC1035360FFF736FF0C4B5B6811
:10106C00C3F303130B4AD35CD8400B4B18600B4BE8
:10107C001868FFF79DFA002070BD01207047012011
:10108C00FAE70120F8E70120F6E700BF0020024054
:10109C0000100240DC1900080C0000201400002095
:1010AC00014B1868704700BF0C00002008B5FFF713
:1010BC00F7FF044B5B68C3F30223034AD35CD840AD
:1010CC0008BD00BF00100240EC19000808B5FFF77E
:1010DC00E7FF044B5B68C3F3C223034AD35CD840DD
:1010EC0008BD00BF00100240EC1900080268D3686C
:1010FC0023F49073D3600268536923F001035361A6
:10110C00036B012B05D0202380F83E3000230363B2
:10111C0070470268D36823F01003D360F3E790F8AC
:10112C003D30DBB2212B01D0022070478368B3F530
:10113C00805F17D0036A5A1C02621A7803685A60DF
:10114C00C38C9BB2013B9BB2C3844BB90268D3687E
:10115C0023F08003D3600268D36843F04003D3606C
:10116C00002070470369002BE4D1036A1B880268D6
:10117C00C3F308035360036A02330362E0E7000021
:10118C0010B504460268136923F44053C1680B433D
:10119C00136183680269134342691A430168CB687F
:1011AC0023F4B05323F00C031343CB600268536950
:1011BC0023F4407381690B4353610268134B9A42C9
:1011CC0020D0FFF773FF024602EB820202EB820291
:1011DC0063689B00B2FBF3F20D48A0FB0231490996
:1011EC00642303FB11231B013233A0FB03235B0994
:1011FC0003F0F00202EB011203F00F032168134419
:10120C008B6010BDFFF762FF0246DDE7003801403E
:10121C001F85EB512DE9F84305460F4616469946B6
:10122C00DDF820802C68246837EA04030CBF4FF0EB
:10123C00010C4FF0000CB4451FD1B8F1FF3FF1D0B9
:10124C00B8F1000F05D0FFF7F7F9A0EB0900404506
:10125C00E8D92A68D36823F4D073D3602A68536919
:10126C0023F001035361202385F83D3085F83E308F
:10127C00002385F83C30032000E00020BDE8F88313
:10128C0058B310B5044690F83D300BB3242384F8C2
:10129C003D302268D36823F40053D3602046FFF717
:1012AC006FFF2268136923F490431361226853691A
:1012BC0023F02A0353612268D36843F40053D360AC
:1012CC0000202064202384F83D3084F83E3010BD8B
:1012DC0080F83C30FFF728F9D8E7012070472DE95A
:1012EC00F04182B01E4690F83D30DBB2202B54D139
:1012FC0004460D469046002953D0002A53D090F84E
:10130C003C30012B51D0012380F83C300023036486
:10131C00212380F83D30FFF78FF90746A4F824808D
:10132C00A4F82680A368B3F5805F05D04FF00008C1
:10133C00002384F83C3012E0236913B14FF000080D
:10134C00F6E7A8460025F3E738F8023B2268C3F31A
:10135C0008035360E28C92B2013A92B2E284E38CBD
:10136C009BB273B100963B46002280212046FFF7CA
:10137C0051FFE0B9002DE7D015F8012B23685A6016
:10138C00E8E700963B46002240212046FFF742FF4B
:10139C0078B9202384F83D3000E0022002B0BDE88B
:1013AC00F0810120FAE70120F8E70220F6E703209C
:1013BC00F4E70320F2E790F83D30DBB2202B19D193
:1013CC00D1B1DAB190F83C30012B19D0012380F85F
:1013DC003C3001628284C28400230364212280F8A1
:1013EC003D2080F83C300168CA6842F08002CA6037
:1013FC001846704702207047012070470120704743
:10140C000220704708B50168CA6822F04002CA6021
:10141C00202280F83D20FEF799FF002008BD704780
:10142C0008B5406A0023C385C384FFF7F8FF08BDE5
:10143C00704790F83E30DBB2222B60D18368B3F555
:10144C00805F46D0826AB3F5805F04D0002B4DD10B
:10145C000369002B4AD103685B681370836A0133FC
:10146C008362C38D9BB2013B9BB2C385002B48D1D9
:10147C0000B583B00268D36823F02003D360026800
:10148C00D36823F48073D3600268536923F001039B
:10149C005361202380F83E30036B012B2CD10023A9
:1014AC0003630268D36823F01003D36003681A68DF
:1014BC0012F0100F06D0002201921A6801925B689C
:1014CC000193019B818DFFF7B3FF002003B05DF802
:1014DC0004FB0269002AB5D1826A03685B68C3F316
:1014EC0008031380836A02338362BAE703685B687C
:1014FC0003F07F031370B1E7FEF7E0FEE5E702208F
:10150C00704700207047000030B583B00446026875
:10151C001368D068516913F00F0505D113F0200F33
:10152C0002D010F0200F19D12DB111F0010119D1F9
:10153C0010F4907F16D1216B012975D013F0800F18
:10154C0003D010F0800F40F0D78013F0400F03D081
:10155C0010F0400F40F0D48003B030BD2046FFF7B0
:10156C0068FFF9E713F0010F06D010F4807F03D069
:10157C00226C42F00102226413F0040F04D019B162
:10158C00226C42F00202226413F0020F04D019B153
:10159C00226C42F00402226413F0080F07D010F002
:1015AC00200F00D119B1226C42F008022264226C87
:1015BC00002AD1D013F0200F02D010F0200F21D12F
:1015CC0023685B6903F04003226C12F0080F00D112
:1015DC0023B32046FFF78AFD23685A6912F0400FA7
:1015EC0018D05A6922F040025A61A36B73B1464A73
:1015FC005A63A06BFFF7C8F80028ADD0A06B436B03
:10160C009847A9E72046FFF714FFD9E72046FFF7D4
:10161C0006FFA1E72046FFF702FF9DE72046FFF7F4
:10162C00FEFE0023236497E713F0100F86D010F012
:10163C00100F83D000230193136801935368019317
:10164C00019B536913F0400F32D0A16B0B685B68A0
:10165C009BB2002B80D0A08D98427FF67DAFE385A6
:10166C008B69202B08D1A18DE38D9BB2C91A89B24D
:10167C002046FFF7DDFE6FE7D36823F48073D36059
:10168C002268536923F0010353612268536923F0E4
:10169C0040035361202384F83E30002323632268E7
:1016AC00D36823F01003D360A06BFFF74BF8DAE795
:1016BC00A18DE38D9BB2C91A89B2E38D9BB2002B2D
:1016CC003FF44AAF00293FF447AFD36823F490733B
:1016DC00D3602268536923F001035361202384F8FB
:1016EC003E30002323632268D36823F01003D360B9
:1016FC002046FFF79DFE2FE72046FFF710FD2BE756
:10170C002046FFF77FFE27E72D14000890F83D30A8
:10171C0090F83E0018437047034681628285C2856B
:10172C0000201864222283F83E2083F83C001968BC
:10173C00CA6842F48072CA6019684A6942F00102B0
:10174C004A611A68D36843F02003D360704708B528
:10175C0090F83E30DBB2202B0DD171B17AB190F8FC
:10176C003C30012B0DD0012380F83C300023036367
:10177C00FFF7D2FF00E0022008BD0120FCE70120AA
:10178C00FAE70220F8E700000C480D490D4A002347
:10179C0002E0D458C4500433C4188C42F9D30A4A1A
:1017AC000A4C002301E013600432A242FBD3FEF783
:1017BC009FFE00F00FF8FEF70DFE704700000020B2
:1017CC0044040020181A000844040020B00500202E
:1017DC00FEE7000070B50D4E0D4D761BB61006D011
:1017EC00002455F8043B01349847A642F9D1094E20
:1017FC00094D00F0D5F8761BB61006D0002455F82C
:10180C00043B01349847A642F9D170BD0C1A00086C
:10181C000C1A0008141A00080C1A0008830730B5BB
:10182C0048D0541E002A3FD00346CAB201E0013C06
:10183C003AD303F8012B9D07F9D1032C2DD9CDB246
:10184C0045EA05250F2C45EA054536D9A4F11002C9
:10185C0022F00F0C03F1200EE6444FEA121C03F1A8
:10186C00100242E9045542E9025510327245F8D192
:10187C000CF1010214F00C0F03EB021204F00F0C2C
:10188C0013D0ACF1040323F003030433134442F8E4
:10189C00045B9342FBD10CF003042CB1CAB21C4480
:1018AC0003F8012B9C42FBD130BD64461346002C3F
:1018BC00F4D1F9E703461446BFE71A46A446E0E71D
:1018CC00024B13B1024800F005B87047000000004D
:1018DC00ED180008002301461A46184600F01AB805
:1018EC0038B5084B084D5B1B9C1007D0043B1D44BE
:1018FC00013C55F804399847002CF9D1BDE8384023
:10190C0000F054B8181A0008141A0008704700BFE9
:10191C00704700BF2DE9F047DFF87CA00646DAF8E7
:10192C00000098460F469146FFF7F0FF1B4B1B68D3
:10193C00D3F8484124B365681F2D26DC5EB96B1CB7
:10194C000235DAF80000636044F82570FFF7E0FF19
:10195C000020BDE8F087012304EB8501C1F88890D5
:10196C00D4F88821AB401A43022EC4F88821C1F860
:10197C000881E4D1D4F88C211343C4F88C31DEE710
:10198C0003F5A674C3F84841D5E7DAF80000FFF771
:10199C00BFFF4FF0FF30DCE740040020081A0008BE
:1019AC00F8B500BFF8BC08BC9E467047F8B500BF40
:0819BC00F8BC08BC9E46704710
:1019C400CAFDBEDDD2E7B3F600000000B2FAC9FAE0
:1019D400D6D0B6CF000000000000000000000000D8
:1019E40001020304060708090000000001020304C1
:1019F40002030405060708090A0B0C0D0E0F10104C
:081A04000000000018000020A2
:081A0C00CD18000831010008AB
:041A14000D010008B8
:101A180048656C6C6F20576F726C640A0024F40080
:101A28000100000010000000000000000403002076
:101A38006C030020D4030020000000000000000018
:101A4800000000000000000000000000000000008E
:101A5800000000000000000000000000000000007E
:101A6800000000000000000000000000000000006E
:101A7800000000000000000000000000000000005E
:101A8800000000000000000000000000000000004E
:101A9800000000000000000000000000000000003E
:101AA800000000000000000000000000000000002E
:101AB800000000000000000000000000000000001E
:101AC800000000000000000000000000000000000E
:101AD80001000000000000000E33CDAB34126DE6AB
:101AE800ECDE05000B000000000000000000000014
:101AF80000000000000000000000000000000000DE
:101B080000000000000000000000000000000000CD
:101B180000000000000000000000000000000000BD
:101B280000000000000000000000000000000000AD
:041E5800AC050020B5
:040000050800179543
:00000001FF
